:020000040800F2
:10000000E0060020890100087B1200082512000884
:1000100079120008C9030008EF1200080000000070
:100020000000000000000000000000007F12000837
:10003000CB030008000000007D12000881120008B8
:10004000A3010008A3010008A3010008A301000800
:10005000A3010008A3010008A3010008A3010008F0
:10006000A3010008A3010008A3010008A3010008E0
:10007000A3010008A3010008A3010008A3010008D0
:10008000A3010008A3010008A3010008A3010008C0
:10009000A3010008A3010008A3010008A3010008B0
:1000A000A3010008A3010008A3010008A3010008A0
:1000B000A3010008A3010008A3010008A301000890
:1000C000A3010008A3010008A3010008A301000880
:1000D000A3010008A3010008A3010008A301000870
:1000E000A3010008A3010008A301000800F002F822
:1000F00000F03AF80AA090E8000C82448344AAF188
:100100000107DA4501D100F02FF8AFF2090EBAE885
:100110000F0013F0010F18BFFB1A43F0010318473B
:100120004814000068140000103A24BF78C878C151
:10013000FAD8520724BF30C830C144BF04680C60ED
:10014000704700000023002400250026103A28BF35
:1001500078C1FBD8520728BF30C148BF0B60704739
:100160001FB51FBD10B510BD00F08AF81146FFF78E
:10017000F7FF01F011F900F0A8F803B4FFF7F2FF60
:1001800003BC00F0AFF80000094880470948004769
:10019000FEE7FEE7FEE7FEE7FEE7FEE7FEE7FEE737
:1001A000FEE7FEE704480549054A064B7047000094
:1001B000ED120008ED000008E0000020E00600203D
:1001C000E0020020E002002010B5203AC0F00B80D1
:1001D000B1E81850203AA0E81850B1E81850A0E84B
:1001E0001850BFF4F5AF5FEA027C24BFB1E81850A5
:1001F000A0E8185044BF18C918C0BDE810405FEA15
:10020000827C24BF51F8043B40F8043B08BF704790
:10021000D20728BF31F8023B48BF11F8012B28BF95
:1002200020F8023B48BF00F8012B70474FF0000256
:1002300000B5134694469646203922BFA0E80C50DC
:10024000A0E80C50B1F12001BFF4F7AF090728BFB7
:10025000A0E80C5048BF0CC05DF804EB890028BF33
:1002600040F8042B08BF704748BF20F8022B11F05C
:10027000804F18BF00F8012B7047704770477047D8
:10028000754600F02BF8AE4605006946534620F04F
:100290000700854618B020B5FFF784FFBDE8204071
:1002A0004FF000064FF000074FF000084FF0000B32
:1002B00021F00701AC46ACE8C009ACE8C009ACE8E5
:1002C000C009ACE8C0098D46704710B50446AFF3CD
:1002D00000802046BDE81040FFF74FBF0048704740
:1002E0008000002001491820ABBEFEE72600020076
:1002F0007047000070B5044600688168C943C907AB
:1003000017D1816821F00101816000F0A1FB054651
:100310000AE000BF00F09CFB401B022804D92068C3
:100320008068C043C00706D020688068C043C0070B
:10033000F0D0002070BDA06A40F01000A062E06A1A
:1003400040F00100E062012070BD0000F8B5002619
:100350000446009600688168C943C9072DD08168AA
:1003600041F001018160164816490068B0FBF1F0C8
:1003700000E0401E00900028FBD100F069FB05461C
:1003800016E000BF00F064FB401B022810D9206873
:100390008068C043C0070BD0A06A40F01000A06284
:1003A000E06A40F00100E06284F824600120F8BDBA
:1003B00020688068C043C007E4D10020F8BD000079
:1003C0000C00002040420F00FEE77047F8B5002403
:1003D000009490F824202546012A12D0012280F8AA
:1003E00024204A681F23072A0DD20668776B521E05
:1003F00002EB820293409F430B6893401F43776355
:1004000019E00220F8BD06680D2A0AD2376BD21F08
:1004100002EB820293409F430B6893401F43376374
:1004200009E0F76A0D3A02EB820293409F430B68A2
:1004300093401F43F7620A68072306680A2A0AD313
:10044000F7680A3A02EB420293409F438B6893405D
:100450001F43F76008E0376902EB420293409F4375
:100460008B6893401F4337610A68102A01D0112A14
:1004700020D1124B02689A4217D193681B0219D4FB
:10048000936843F4000393600968102912D10C4962
:100490000C4A0968B1FBF2F101EB8101490000E06F
:1004A000491E00910029FBD104E0816A41F020013E
:1004B0008162012480F824502046F8BD00240140C8
:1004C0000C00002040420F000068C06C7047000024
:1004D0002DE9F0414FF0000704003D467ED0A06AB0
:1004E000002628B9E66284F82460204600F07EF8F1
:1004F0002046FFF7FFFEA16AC90600D420B1A06A1A
:1005000040F01000A06269E0A16A21F4885141F036
:100510000201A1626268E169237B0A4347EA430161
:100520000A43A1684FF48077B94209D0012907D066
:100530005FF0000194F814C0BCF1010F02D00AE092
:100540003946F7E7F3B1A36A43F02003A362E36AF5
:1005500043F00103E3622368D3F804C02CF4694C30
:100560004CEA010CC3F804C021688B68DFF870C046
:1005700003EA0C0313438B60A168B9420BD0012935
:1005800009D00CE0DFF85CC0A3690CEB43330B43EC
:1005900043F40061DFE7218A0D05A5F58015216888
:1005A000CB6A23F470032B43CB62216889680E4B1E
:1005B0001940914208D1E662A16A21F0020141F09E
:1005C0000101A162BDE8F081A06A20F0020040F0C4
:1005D0001000A062E06A40F00100E0620120F1E753
:1005E000FDF7E1FF00E0FFFFFE0E1FFF00B585B045
:1005F0000021009101910291039100680E49884207
:1006000018D10E48816941F400718161816901F45A
:1006100000710491816941F0080181618069694636
:1006200000F008000490022000900320019004488C
:1006300000F018F905B000BD002401400010024090
:10064000000C01402DE9F84300270D4604460097B1
:1006500000F0FEF9804620688168C90508D5A06AC7
:1006600040F02000A06284F824700120BDE8F883E7
:100670004168C90503D4C06A10F4700F2AD0022063
:1006800000F076FA3B490968B1FBF0F6206803698F
:1006900039490B424FEA61014FEAA1121FD1C368E9
:1006A0004FEA611C13EA0C0F19D103690B4225D1E3
:1006B000C068104222D1142023E0681C0AD02DB15A
:1006C00000F0C6F9A0EB0800A84203D92068006832
:1006D000800725D5206800688007EED52DE00369E6
:1006E0000B4202D1C168114206D0026923490A4275
:1006F00006D1C068084203D1542002E0292000E05E
:10070000FC204643009816E0681C11D02DB100F083
:100710009FF9A0EB0800A8420AD90098B04207D27E
:10072000A06A40F00400A06284F8247003209DE7D2
:100730000098401C0090B042E6D321686FF0120090
:100740000860A06A40F40070A06220688068C0F36E
:10075000424007280CD1207B50B9A06A20F4807059
:10076000A062A06AC00403D4A06A40F00100A062A5
:1007700000207BE70C0000202449922449922400A9
:1007800070B5044690F8240001280DD0012084F8AB
:1007900024002046FFF7DAFD02004FF0000005D0EC
:1007A00084F82400104670BD022070BDA16A40F29A
:1007B0000123994341F48071A1621F4D23681F49B1
:1007C000AB4218D10E6816F4702F14D0A66A46F406
:1007D0008016A6620E68760505D5A66A26F4005630
:1007E00046F48056A662A66AF6040AD5E66A26F0A2
:1007F0000606E66206E0A66A26F48016A6625E6831
:10080000E9E7E06284F824006FF0020018602068D5
:100810008368C3F34243072B05D1A84208D1096876
:1008200011F4702F04D0816841F480118160B9E720
:10083000816841F4A001F9E7002801400424014047
:1008400070B5044600F004F90546601C02D0044867
:100850000078044400F0FCF8401BA042FAD370BDBD
:10086000000000202DE9F84FDFF8B891002409F1CD
:10087000040A0AF1040B23460F270BF1040EC9E00A
:100880000125A5402A40AA427DD1674ED1F804C077
:10089000ACEB0608B44532D014DCBCF1030F3AD0FF
:1008A00009DCBCF1000F2AD0BCF1010F1CD0BCF157
:1008B000020F31D11DE0BCF1110F17D0BCF1120FA6
:1008C0002AD119E0B8F5881F19D006DCB8F5803FA9
:1008D00015D0B8F5801F1FD111E0B8F5001F0ED05C
:1008E000B8F5041F18D10AE0CB6815E0CB681B1DD2
:1008F00012E0CB6808330FE0CB680C330CE08B6858
:100900002BB1012B4FF0080303D0456104E0042311
:1009100002E0056100E00023FF2A01D8064601E05D
:1009200000F104064FEA840501D9A5F12005D6F8A7
:10093000008007FA05FC28EA0C0803FA05F548EAE6
:100940000508C6F800804D68ED0062D5374DAE69E8
:1009500046F00106AE61AD6924F0030605F001051D
:100960000095334D06EB050CDCF80850A607360F52
:1009700007FA06F825EA0805DFF8B880404503D1F4
:100980004FF0000817E044E0DFF8AC80404502D1AA
:100990004FF001080FE0DFF8A480404502D14FF08E
:1009A000020808E0DFF89880404502D14FF00308C4
:1009B00001E04FF0040808FA06F848EA0508CCF808
:1009C00008804D68D9F80060ED034D4601D5164307
:1009D00000E096432E604D68DAF80060AD0355469E
:1009E00001D5164300E096432E604D68DBF80060A9
:1009F000ED025D4601D5164300E096432E604D683A
:100A0000DEF80060AD02754601D5164300E096435E
:100A10002E60641C0D682A46E5407FF431AFBDE8C6
:100A2000F88F000000040140000011100010024087
:100A30000000014000080140000C0140001001408E
:100A4000001401400AB1016170470904FBE700008E
:100A5000014880687047000000000020024881685B
:100A6000027811448160704700000020074810B5EB
:100A7000016841F010010160032000F067F80F20C9
:100A800000F006F800F024F8002010BD002002401D
:100A900070B50D4D04464FF47A712878B1FBF0F033
:100AA0000A490968B1FBF0F000F0A8FB48B9102C26
:100AB00007D200222146501E00F028F800206C606A
:100AC00070BD012070BD0000000000200C0000205F
:100AD0000C4808B5816941F001018161816901F02B
:100AE00001010091C16941F08051C161C06900F00C
:100AF000805000900448416821F0E06141F00071AD
:100B0000416008BD0010024000000140F0B40E4BEF
:100B10001B680C46C3F30223C3F10705042D00D95B
:100B20000425191D072901D2002300E0DB1E012640
:100B300006FA05F1491E214099409E40761E164056
:100B40003143F0BC00F0D4BB0CED00E0064900F0EE
:100B5000070208684FF6FF03184040EA0220034AE4
:100B600010430860704700000CED00E00000FA053B
:100B700010B529A401461DCC86B08DE81D002AA021
:100B80002A4C006804900020012923D002293AD081
:100B900010291DD161682268D20119D5C1F38342A1
:100BA000C9031DF8020009D5616804AAC1F34041D8
:100BB000515C1F4AB2FBF1F1484301E01D49484333
:100BC0006168490204D440005FF00301B0FBF1F01A
:100BD00006B010BD226AC2F30121012903D1920798
:100BE00001D5C803F4E7022905D1626A920702D54C
:100BF00049F64040ECE70329EAD121688903E7D5AB
:100C00004FF22440E4E700F023F96168C1F3813139
:100C1000491C4900DAE70000020304050607080939
:100C20000A0B0C0D0E0F1010010200000010024004
:100C300000127A0000093D002DE9F84305460078CE
:100C4000354CC00754D0E0690026C00008D4E069E4
:100C500040F08050E061E069012600F08050009093
:100C60002E480168C90512D40168804641F480719C
:100C70000160FFF7EDFE074605E000BFFFF7E8FE65
:100C8000C01B642823D8D8F80000C005F6D5206A18
:100C900010F4407021D0A98801F4407181421CD029
:100CA000206A1F49012220F440700A6000220A6075
:100CB0002062C00711D0FFF7CBFE074641F288380B
:100CC00008E000BFFFF7C4FEC11B414502D9032065
:100CD000BDE8F883206A8007F4D5206A696820F4AB
:100CE0004070084320621EB1E06920F08050E0614E
:100CF0002878800705D56068A96820F4404008433B
:100D000060602878C00605D56068E96820F4800036
:100D1000084360600020DBE70010024000700040E4
:100D2000400442422DE9F0470F46050061D0434E92
:100D3000306800F00700B84209D2306820F00700A0
:100D400038433060306800F00700B84251D128685D
:100D50003B4C810712D5400703D5606840F4E06042
:100D600060602878000703D5606840F460506060D8
:100D70006068A96820F0F000084360602878C00728
:100D800028D06868012810D02168022810D089076F
:100D900000292EDA616821F0030101436160FFF749
:100DA00057FE804641F288390DE021688903EFE75C
:100DB0008901EDE7FFF74CFEA0EB0801494502D998
:100DC0000320BDE8F0876068696800F00C00B0EBB4
:100DD000810FEFD1306800F00700B8420BD93068BE
:100DE00020F0070038433060306800F00700B84258
:100DF00001D00120E5E72878400705D56068E9685B
:100E000020F4E060084360602878000706D5606839
:100E1000296920F4605040EAC100606000F028F8C1
:100E20006168084AC1F30311515CC8400649086073
:100E300006480068FFF72CFE0020C2E700200240B1
:100E400000100240501500080C0000200400002093
:100E50000448054900684968044AC1F3C221515C4D
:100E6000C84070470C0000200010024060150008C8
:100E700012A185B00FC98DE80F0014A0144A0068B4
:100E800004905168134801F00C03042B10D0082B78
:100E90000ED1C1F38343C9031DF803000AD551687D
:100EA00004AAC1F34041515C0A4A5043B0FBF1F03F
:100EB00005B0704708494843FAE7000002030405FB
:100EC000060708090A0B0C0D0E0F10100102000096
:100ED0000010024000127A0000093D002DE9F84F91
:100EE000040070D02078C04DC00749D06868C0F3B6
:100EF0008100012807D06868C0F38100022809D169
:100F00006868C00306D52868800339D56068002862
:100F1000E7D035E06068B0F5803F0BD010B1B0F598
:100F2000A02F11D0286820F480302860286820F491
:100F3000802002E0286840F480302860606890B12A
:100F4000FFF786FD06460AE0286840F48020286006
:100F5000F0E700BFFFF77CFD801B642873D828688A
:100F60008003F7D50CE0FFF773FD064605E000BFF0
:100F7000FFF76EFD801B6428F0D828688003F7D443
:100F800020789A4E80074FF001094FF0000839D5BC
:100F9000686810F00C0F07D06868C0F38100022861
:100FA00009D16868C00306D42868800714D5206971
:100FB000012808D110E02069B0B1C6F80090FFF711
:100FC00047FD074605E00AE1FFF742FDC01B022886
:100FD000C4D828688007F7D52868616920F0F80030
:100FE00040EAC10028600DE0C6F80080FFF730FD40
:100FF000074604E0FFF72CFDC01B022823D8286811
:101000008007F7D4207800072CD57948A169D9B199
:10101000C0F80090FFF71CFD074604E0FFF718FD3D
:10102000C01B02280FD8686A8007F7D571484FF4B3
:10103000FA510068B0FBF1F0009000BF0098411E2B
:101040000091FAD20EE080E0C0F80080FFF700FDCA
:10105000074604E0FFF7FCFCC01B022875D8686A4D
:101060008007F7D42078400760D5E8690027C000E2
:1010700008D4E86940F08050E861E869012700F091
:10108000805000905C480168C90513D4016883460C
:1010900041F480710160FFF7DBFC824606E000BF8F
:1010A000FFF7D6FCA0EB0A0064284ED8DBF800005E
:1010B000C005F5D5E06801280AD008B1052813D08D
:1010C000286A20F001002862286A20F0040002E06B
:1010D000286A40F001002862E06841F2883B98B13C
:1010E000FFF7B6FC82460BE0286A40F00400286255
:1010F000EEE700BFFFF7ACFCA0EB0A0159455AD858
:10110000286A8007F6D50CE0FFF7A2FC824605E0CE
:10111000FFF79EFCA0EB0A0159454CD8286A8007CE
:10112000F6D41FB1E86920F08050E861E06988B327
:101130006968C1F38101022944D00228C6F86080A1
:1011400004D0FFF785FC044638E034E0FFF780FC6C
:10115000074604E0FFF77CFCC01B02282BD8286858
:101160008001F7D4206AB0F5803F05D16868A16896
:1011700020F4003008436860D4E908010843696836
:1011800021F4741108436860C6F86090FFF760FCB2
:10119000044606E025E000BFFFF75AFC001B0228CA
:1011A00009D828688001F7D51BE000BFFFF750FC85
:1011B000001B022802D90320BDE8F88F28688001AF
:1011C000F4D40EE00128F7D06868226A00F4803178
:1011D000914204D1616A00F47010884201D001206C
:1011E000EAE70020E8E70000001002400000424269
:1011F000800442420C0000200070004010B5401EE8
:10120000B0F1807F01D3012010BD4FF0E024606178
:101210000F21601700F06CF80020A061072020610A
:10122000002010BDFEE700003EB5002411480094E8
:10123000019402940E4984600160012505730475D0
:1012400005614FF460214460C161FFF741F908B1C5
:1012500072B6FEE70920CDE900056946029405480B
:10126000FFF7B4F8002801D072B6FEE73EBD0000DB
:101270000024014050000020FEE7FEE77047704761
:10128000FFF7ECBB30B593B028216846FEF7CEFFE0
:1012900014210AA8FEF7CAFF002401200F9402259A
:1012A00004900095102011940590109412940794C6
:1012B0006846FFF713FE08B172B6FEE70F20CDE9CE
:1012C0000A040C940D9400210AA80E94FFF72AFD3D
:1012D00008B172B6FEE70FA80F951194FFF7ACFCAA
:1012E000002801D072B6FEE713B030BD7047FEE7AC
:1012F0000907090E002804DB00F1E02080F8001443
:10130000704700F00F0000F1E02080F8141D7047D6
:1013100030B58BB0044628221D496846FEF754FFBD
:101320000A2194FBF1F294FBF1F001FB12435DF80A
:1013300020105DF82300174C002200BF01EBD1758F
:101340006B1025F00105491B44F822101946052AA7
:1013500017D0521C052AF1DD0E4C002114F1200497
:1013600000EBD0735A1023F00103C01A44F8210097
:101370001046052908D0491C0529F1DD0BB00020D5
:1013800030BD04498B61E7E7024820308261F5E710
:10139000281500081000002086B0FFF767FBFFF754
:1013A00071FF0024234800940194029403948169FE
:1013B00041F008018161816901F0080104918169AE
:1013C00041F00401816180691B4E00F0040043F28A
:1013D000F8350490002229463046FFF733FB012000
:1013E0000095CDE901040220039069463046FFF7DD
:1013F00039FAFFF719FF4FF47A7629250F48FFF7DE
:10140000BFF931460D48FFF71DF90C48FFF75CF8AE
:1014100090FBF5F0012800D10020FFF779FF00F0E4
:101420000FF800F00DF8022400F00AF8641C0A2CF2
:10143000FADBE3E700100240000C014050000020FE
:101440002DE9F041DFF8D8804FF4005500222946FD
:101450004046FFF7F7FA0122160331464046FFF7F0
:10146000F1FA304C082140462278FFF7EBFA227956
:1014700010214046FFF7E6FA227A20214046FFF786
:10148000E1FA227B40214046FFF7DCFA227C8021F2
:101490004046FFF7D7FA6F11227D39464046FFF7E5
:1014A000D1FA227E2C1121464046FFF7CBFA0320C9
:1014B000FFF7C6F9002231464046FFF7C3FA012282
:1014C00029464046FFF7BEFA164D08212035404612
:1014D0002A78FFF7B7FA2A7910214046FFF7B2FAC7
:1014E0002A7A20214046FFF7ADFA2A7B4021404668
:1014F000FFF7A8FA2A7C80214046FFF7A3FA2A7D4D
:1015000039464046FFF79EFA2A7E21464046FFF7BD
:1015100099FA0320FFF794F90020BDE8F08100005C
:10152000000C014010000020400000007900000085
:10153000240000003000000019000000120000002C
:101540000300000078000000000000001800000008
:101550000000000000000000010203040607080963
:1015600000000000010203048815000800000020AC
:101570001000000028010008981500081000002045
:10158000D006000044010008010000001000000027
:08159000000000000024F4003B
:04000005080000ED02
:00000001FF
